{
  "contractName": "Test1",
  "abi": [
    {
      "inputs": [],
      "payable": false,
      "stateMutability": "nonpayable",
      "type": "constructor"
    },
    {
      "constant": false,
      "inputs": [
        {
          "internalType": "address",
          "name": "toAddress",
          "type": "address"
        },
        {
          "internalType": "uint256",
          "name": "amount",
          "type": "uint256"
        }
      ],
      "name": "test",
      "outputs": [],
      "payable": false,
      "stateMutability": "nonpayable",
      "type": "function"
    }
  ],
  "bytecode": "0x608060405234801561001057600080fd5b5060f78061001f6000396000f3fe6080604052348015600f57600080fd5b506004361060285760003560e01c8063ba14d60614602d575b600080fd5b607660048036036040811015604157600080fd5b81019080803573ffffffffffffffffffffffffffffffffffffffff169060200190929190803590602001909291905050506078565b005b8173ffffffffffffffffffffffffffffffffffffffff166108fc829081150290604051600060405180830381858888f1935050505015801560bd573d6000803e3d6000fd5b50505056fea265627a7a72315820cacc4cef3dec71faaf18df4e3865e243220befce36ee466ecec8aae3a725390164736f6c63430005100032",
  "source": "pragma solidity 0.5.16;\n\ncontract Test1 {\n    uint a;\n    constructor() public {\n    }\n    function test(address toAddress, uint256 amount) public {\n        address(uint160(toAddress)).transfer(amount);\n    }\n}\n",
  "sourcePath": "/Users/tangaoyuan/Documents/gopath/src/github.com/blockchainpro/usage/ethereum_contract/contract_call_test/contracts/Test1.sol",
  "compiler": {
    "name": "solc",
    "version": "0.5.16+commit.9c3226ce.Emscripten.clang"
  },
  "schemaVersion": "3.4.2",
  "updatedAt": "2021-08-10T06:15:55.150Z",
  "devdoc": {
    "methods": {}
  },
  "userdoc": {
    "methods": {}
  }
}